:020000040800F2
:10000000F80D0220F90200081D0300081F03000874
:100010009D170008230300082503000800000000C6
:10002000000000000000000000000000270300089E
:1000300029030008000000002B0300082D0300081E
:100040002F0300082F0300082F0300082F030008C8
:100050002F0300082F0300082F0300082F030008B8
:100060002F0300082F0300082F0300082F030008A8
:100070002F0300082F0300082F0300082F03000898
:100080002F0300082F0300082F0300082F03000888
:10009000090A00082F0300082F0300082F03000897
:1000A0002F0300082F0300082F0300082F03000868
:1000B0002F03000845220008152300082F0300081D
:1000C0002F0300082F0300082F0300082F03000848
:1000D0002F030008A92700082F0300087D29000826
:1000E0002F0300082F0300082F0300082F03000828
:1000F0002F0300082F0300082F0300082F03000818
:100100002F0300082F030008512300082F030008C5
:100110001D240008292500082F0300082F030008CC
:100120002F0300082F0300082F0300082F030008E7
:100130002F0300082F0300082F0300082F030008D7
:100140002F0300082F0300082F0300082F030008C7
:100150002F0300082F0300082F0300082F030008B7
:100160002F0300082F0300082F0300082F030008A7
:100170002F0300082F0300082F03000800000000D1
:100180002F0300082F0300082F030008492600084A
:100190002F0300082F0300082F0300082F03000877
:1001A0002F0300082F0300082F0300082F03000867
:1001B0002F0300082F0300082F0300082F03000857
:1001C0002F0300082F030008000000002F03000881
:1001D0002F0300082F0300082F0300082F03000837
:1001E0002F0300082F0300082F0300082F03000827
:1001F0002F0300082F03000800F002F800F06DF84C
:100200000AA090E8000C82448344AAF10107DA4571
:1002100001D100F062F8AFF2090EBAE80F0013F056
:10022000010F18BFFB1A43F001031847944E00005A
:10023000B44E00000A444FF0000C10F8013B13F0DC
:10024000070408BF10F8014B1D1108BF10F8015B2F
:10025000641E05D010F8016B641E01F8016BF9D122
:1002600013F0080F1EBF10F8014BAD1C0C1B09D179
:100270006D1E58BF01F801CBFAD505E014F8016BEB
:1002800001F8016B6D1EF9D59142D6D3704700007D
:100290000023002400250026103A28BF78C1FBD88F
:1002A000520728BF30C148BF0B607047642900F077
:1002B000AF80752900F0AC80782900F0E5806329D3
:1002C00000F04482732900F04982002070471FB576
:1002D00004F0FEFD1FBD10B510BD00F079FA114607
:1002E000FFF7F5FF03F00AFD00F097FA03B4FFF7FC
:1002F000F2FF03BC03F013FCDFF84000016841F497
:1003000070010160BFF34F8FDFF83400016821F006
:1003100040410160BFF36F8F0A480047FEE7FEE7E8
:10032000FEE7FEE7FEE7FEE7FEE7FEE7FEE7FEE7A5
:1003300005480649044A064B7047000088ED00E076
:1003400034EF00E0F9010008F8050220F80D022062
:10035000F8050220704700000FB4044910B503AA45
:10036000029800F0FFF910BC5DF814FB04000220B5
:1003700070B5044685690068C10601D5302600E0E5
:100380002026C00707D070BDD4E901213046904730
:10039000206A401C20626D1EF6D570BD70B5044603
:1003A00085690078C00707D170BDD4E901212020FC
:1003B0009047206A401C20626D1EF6D570BD70B556
:1003C0000C460546012A05D02878800600D5EA6942
:1003D000002302E0012305E05B1C934202D2E05CB3
:1003E0000028F9D1A869E618C01AA861286A18443B
:1003F00028622846FFF7BCFF04E0D5E9012114F884
:10040000010B9047B442F8D32846FFF7C7FF70BDF1
:100410002DE9F0410646002410687529314616A5DD
:1004200010D0AFF30080002802DA404213A507E0A5
:1004300031688A0701D512A502E0490704D511A544
:10044000012401E0AFF3008000210A2206F1240715
:1004500009E0B0FBF2FCB0FBF2F302FB1C00303011
:1004600078541846491C0028F3D123462A463046C2
:10047000BDE8F04100F007B9000000002D000000C9
:100480002B0000002000000070B504460D462146F8
:100490001068AFF300802188090502D50F4A7A441D
:1004A00002E00E4A7A440E32002104F1240305E0F2
:1004B00000F00F060009965D5E54491C0028F7D134
:1004C00020780023000704D5702D02D009B1022343
:1004D00011322046BDE8704000F0D5B8384A00001F
:1004E0002DE9F05F894604464FF0000ADFF874B149
:1004F000FB44C0F820A02046E1688847002874D05B
:10050000252806D0D4E901219047206A401C2062AA
:10051000F1E700265F462046E16888472028054627
:1005200007DB312D05D2781910F8200C08B10643ED
:10053000F1E7B00701D526F00406C4F81CA0002797
:10054000C4F818A02A2D09D0284603F0E1FA38B3E0
:1005500004EB8708303DC8F8185019E059F8041B1F
:10056000204604EB87029161E1688847012F054628
:1005700018D1E069002820DA26F020061DE0D8F81E
:10058000180000EB800005EB40003038C8F8180078
:100590002046E1688847054603F0BAFA0028EED104
:1005A000012F0AD02E2D08D12046E16888477F1CF4
:1005B0000546022F46F02006C4DBA069002803DAB6
:1005C000404246F00106A061F00701D026F0100677
:1005D0006C2D0BD0682D09D04C2D39D06A2D35D01B
:1005E000742D35D07A2D33D016E038E0E1682F46EF
:1005F00020468847B842054609D16C2F26D04FF4D3
:100600008060E168064320468847054604E06C2F79
:100610001AD04FF4807006430DB3A5F1410019289C
:1006200002D8203546F400664A4629462046266010
:100630004E46FFF73BFE80B101280BD0F61D26F099
:10064000070000F1080956E74020E4E78020D8E7DA
:100650000020D6E706F104094DE7284652E7206A54
:10066000BDE8F09F0E4A0000704770477047704722
:1006700010B500F089F8006810BD10B5044600F010
:1006800083F8046010BD2DE9F0470D469946924667
:10069000044600F124080168880604D5E06921F0C9
:1006A0001001216000E00120A84201DD471B00E0AD
:1006B0000027A1697A1902EB0900081AA0612078C5
:1006C000C00602D42046FFF753FE002608E0D4E916
:1006D00001211AF806009047206A401C761C20620F
:1006E0004E45F4DB2078C0060AD52046FFF740FED1
:1006F00006E0D4E9012130209047206A401C2062A6
:10070000381EA7F10107F4DC07E0D4E9012118F84D
:1007100005009047206A401C2062281EA5F10105B3
:10072000F3DC2046FFF73AFE2078000602D50220CF
:10073000BDE8F0870120FBE710B5436913B1AFF3C3
:10074000008001E0FFF73BFE012010BD127800F1B0
:1007500024010A7000224A700122EDE711684FF06F
:10076000FF32E9E7074B70B50D467B4400F015F802
:100770000446284600F024F810B14FF0FF3070BD59
:10078000204670BD73350000004870479805022070
:1007900001694A1C02610878704700B58FB0CDE945
:1007A00001310021059105497944CDE90310114635
:1007B0006846FFF795FE0FB000BD0000E5FFFFFFA4
:1007C000007B00F0800070470048704798050220C9
:1007D0007546FFF7F9FFAE4605006946534620F01F
:1007E0000700854618B020B5FFF7A2FDBDE8204000
:1007F0004FF000064FF000074FF000084FF0000BDD
:1008000021F00701AC46ACE8C009ACE8C009ACE88F
:10081000C009ACE8C0098D46704710B50446AFF377
:1008200000802046BDE81040FFF760BD2DE9FC4781
:1008300004460D4616461F46DDF828904FF0000886
:1008400014B10DB106B117B90120BDE8FC87601ED7
:10085000C4B2681EC5B2701EC6B2781E87B26648A2
:10086000006840F002006449086001200221002372
:100870000A46CDE900104FF44071604800F078FD61
:10088000092208215D4800F04BFD092211465B4812
:1008900000F046FD58481030006840F0007056499E
:1008A000103108600020564908600846006840F092
:1008B0000100086008E008F101001FFA80F8B8F1B3
:1008C000640F01DD0220C0E74D48001D006800F004
:1008D00001000028EFD04A480068494908600846EE
:1008E000006808600846006808600846006840F034
:1008F0001000086008460068086008460068086044
:1009000000203F491C3108600846006840EA8970B1
:1009100008600846006840EA04600860084600680D
:1009200040EA055008600846006840EA0640086052
:1009300008460068384308603148006820F001002C
:100940002F49086009E008F101001FFA80F84FF60E
:10095000F070804501DD032077E72948001D00681D
:1009600000F001000028EED12648006840F00100A8
:100970002449086023481C30006820F00100214908
:100980001C3108601F480C30006840F001001D4910
:100990000C3108601B48001D00681A49091D0860D9
:1009A00018481430006817491431086000201549B0
:1009B00040310860002113484430016011481C3068
:1009C000006840F001000F491C3108600D480068C4
:1009D00000200C4908600A481430006840F002000A
:1009E000074914310860022314220321002000F07B
:1009F0007DFE002029E7000030380240000402405C
:100A0000006400400066004000B588B006A802A956
:100A100003AB04AACDE9001005A9002000F068F995
:100A200040F28151059888424DD19DF81800432825
:100A30001AD19DF81900642816D19DF81A00602873
:100A400012D19DF81B0078B99DF81F0000069DF893
:100A50001E1000EB01409DF81D1000EB01209DF8D9
:100A60001C100844954908609DF818004B2817D1C0
:100A70009DF819001C2813D19DF81A0022280FD1C7
:100A80009DF81B0060B99DF81C008D4908709DF809
:100A90001D004870084690ED000A8A4880ED000A63
:100AA0009DF818004F280ED19DF8190001280AD191
:100AB0009DF81A00102806D19DF81B0018B99DF862
:100AC0001C008149087040F28251059888424DD13E
:100AD0009DF8180043281AD19DF81900642816D1F2
:100AE0009DF81A00602812D19DF81B0078B99DF876
:100AF0001F0000069DF81E1000EB01409DF81D1020
:100B000000EB01209DF81C100844704908609DF816
:100B100018004B2817D19DF819001C2813D19DF8F7
:100B20001A0022280FD19DF81B0060B99DF81C0007
:100B3000634908709DF81D004870084690ED000A52
:100B4000634880ED000A9DF818004F280ED19DF8EB
:100B5000190001280AD19DF81A00102806D19DF825
:100B60001B0018B99DF81C005A49087040F28351C7
:100B7000059888424DD19DF8180043281AD19DF858
:100B80001900642816D19DF81A00602812D19DF82A
:100B90001B0078B99DF81F0000069DF81E1000EBA1
:100BA00001409DF81D1000EB01209DF81C10084429
:100BB000494908609DF818004B2817D19DF8190085
:100BC0001C2813D19DF81A0022280FD19DF81B0074
:100BD00060B99DF81C003A4908709DF81D004870E6
:100BE000084690ED000A3D4880ED000A9DF8180087
:100BF0004F280ED19DF8190001280AD19DF81A003E
:100C0000102806D19DF81B0018B99DF81C00344926
:100C1000087040F28451059888424DD19DF8180023
:100C200043281AD19DF81900642816D19DF81A009E
:100C3000602812D19DF81B0078B99DF81F000006AE
:100C40009DF81E1000EB01409DF81D1000EB0120E7
:100C50009DF81C100844234908609DF818004B2893
:100C600017D19DF819001C2813D19DF81A002228CD
:100C70000FD19DF81B0060B99DF81C001049087049
:100C80009DF81D004870084690ED000A164880ED5A
:100C9000000A9DF818004F280ED19DF81900012870
:100CA0000AD19DF81A00102806D19DF81B0018B92A
:100CB0009DF81C000D49087008B000BD24000220FA
:100CC00048000220380002203400022028000220C0
:100CD0003C000220350002202C00022040000220AF
:100CE000360002203000022044000220370002209B
:100CF000F0B5DDE90554324E06EB0016366806F015
:100D000004061670167836B92D4E06EB00163668B6
:100D1000760D0E6005E02A4E06EB00163668F608E2
:100D20000E60274E06EB0016366806F002061E70AF
:100D3000234E06EB0016766806F00F062E70204E46
:100D400006EB0016B66826701D4E06EB0016B66858
:100D5000360A66701A4E06EB0016B668360CA67098
:100D6000174E06EB0016B668360EE670144E06EB0C
:100D70000016F6682671124E06EB0016F668360A63
:100D800066710F4E06EB0016F668360CA6710C4E17
:100D900006EB0016F668360EE67130B9094E366875
:100DA00046F02006074F3E6009E0012807D1054EB6
:100DB000361D366846F02006024F3F1D3E60F0BDEE
:100DC000B06500400C640040FEB5044600260025D6
:100DD00005E0201D405D01A94855681CC5B2E078BA
:100DE000A842F6DC01A80090E37820880022114692
:100DF00000F036F8074601E0701C86B2384600F075
:100E0000B5F8072803D040F6FF708642F4DB40F6C1
:100E1000FF70864201DB0120FEBD0020FCE7F8B533
:100E200005460E4600243346002211461220009546
:100E300000F016F8074601E0601C84B2384600F066
:100E400095F8072803D040F6FF708442F4DB40F6A3
:100E5000FF70844201DB0120F8BD0020FCE70000A8
:100E6000F0B505460E46059C3E48006800F08060DF
:100E700008B100210FE03B48006800F0006008B1B5
:100E8000012108E03748006800F0805008B10221D5
:100E900001E0FF20F0BD0027334800EB01100760A0
:100EA0001EB9C5F30A056D0502E025F06045ED00A9
:100EB0002D4800EB0110006828432B4F07EB01176A
:100EC0003860294800EB0110006840EA8607264890
:100ED00000EB01100760244800EB0110006840EAB5
:100EE0004207214800EB0110076003F00F031E4882
:100EF00000EB0110406820F00F071B4800EB0110C9
:100F00004760194800EB011040681843164F07EB83
:100F100001177860E0790006A77940EA0740677911
:100F200040EA0727207907430F4800EB0110C7600C
:100F3000E0780006A77840EA0740677840EA072093
:100F400027783843084F07EB0117B860064800EBD5
:100F50000110006840F00107034800EB0110076032
:100F6000084697E70864004080650040014600207D
:100F700021B1012913D0022933D121E01B4A126883
:100F800002F001021043194A126802F002021043F3
:100F9000164A126802F0806240EA126023E0134AA7
:100FA000126802F001021043104A126802F00202B5
:100FB00010430E4A126802F0006240EA526012E0EA
:100FC0000A4A126802F001021043084A126802F04D
:100FD00002021043054A126802F0805240EA926011
:100FE00001E0052000BF00BF70470000086400401A
:100FF00010B500BF00BF00BF00BF00BFBFF34F8FE1
:1010000000BF00BF00BF00BF00BF00BFBFF36F8FB6
:1010100000BF00BF00BF00201149086011480068F0
:1010200040F400300F49086000BF00BF00BFBFF3AD
:101030004F8F00BF00BF00BF00BF00BF00BFBFF3A6
:101040006F8F00BF00BF00BF00BF00F0E3FF044888
:101050004C30006840F0040001494C31086010BD7C
:1010600050EF00E014ED00E0B5EEC00AF1EE10FA2A
:101070002CD29B4890ED001A21EE201ABDEEC11A29
:10108000984880ED001A964890ED001A21EE201A3B
:10109000BDEEC11A944880ED001A914890ED001AF7
:1010A000B1EE411A21EE201ABDEEC11A8F4880ED33
:1010B000001A8B4890ED001AB1EE411A21EE201A69
:1010C000BDEEC11A8A4880ED001A08E1B5EEC00AEB
:1010D000F1EE10FA28D1824890ED001A21EE201A84
:1010E000BDEEC11A7F4880ED001A7D4890ED001AD0
:1010F00021EE201ABDEEC11A7B4880ED001A784817
:1011000090ED001A21EE201ABDEEC11A774880ED4D
:10111000001A734890ED001A21EE201ABDEEC11A94
:10112000734880ED001ADAE0F5EEC00AF1EE10FA2D
:1011300068DD7048D0ED001AB0EE002A81EE821A08
:10114000C1EE001AB7EE001A31EE811A6448D0EDF4
:10115000001A21EE211A21EE201ABDEEC11A6148B3
:1011600080ED001A634890ED001AB0EE002AC1EE3F
:10117000021A81EE801AF7EE001A31EE211A584851
:10118000D0ED001A21EE211A21EE201ABDEEC11A6F
:10119000554880ED001A5748D0ED001AB0EE002AED
:1011A00081EE821AC1EE001AB7EE001A31EE611A12
:1011B0004B48D0ED001AF1EE611A21EE211A21EE12
:1011C000201ABDEEC11A494880ED001A4948D0EDF9
:1011D000001AB0EE002A81EE821AC1EE001AB7EEB4
:1011E000001A31EE611A3E48D0ED001AF1EE611A94
:1011F00021EE211A21EE201ABDEEC11A3C4880EDE5
:10120000001A6CE0F5EEC00AF1EE10FA67D2394828
:10121000D0ED001AB0EE002A81EE821AC1EE001A5B
:10122000B7EE001A31EE611A2D48D0ED001AF1EE3A
:10123000611A21EE211A21EE201ABDEEC11A2948A9
:1012400080ED001A2B48D0ED001AB0EE002A81EE96
:10125000821AC1EE001AB7EE001A31EE611A204868
:10126000D0ED001AF1EE611A21EE211A21EE201ABA
:10127000BDEEC11A1C4880ED001A1E4890ED001A00
:10128000B0EE002AC1EE021A81EE801AF7EE001AC3
:1012900031EE211A1248D0ED001A21EE211A21EE6A
:1012A000201ABDEEC11A114880ED001A1148D0ED88
:1012B000001AB0EE002A81EE821AC1EE001AB7EED3
:1012C000001A31EE811A0648D0ED001A21EE211ADB
:1012D00021EE201ABDEEC11A054880ED001A7047B4
:1012E00018010220280102202C01022030010220D6
:1012F00034010220C800022010B502460024032356
:1013000000BF03E0D05C2044C4B25B1C481E98427E
:10131000F8DC105CA04201D1012010BD0020FCE7E8
:1013200030B5CC1000F1200353F824304C07E50E03
:101330000F24AC40A343CD1000F1200444F8253025
:10134000CC1000F1200353F824304C07E40E02FACD
:1013500004F42343CD1000F1200444F8253030BDBF
:1013600002F001030BB1816101E00B04836170475E
:101370002DE9F0470C46DDE90867002100258C4681
:1013800000BF60E04FF0010808FA01F504EA050C1F
:10139000AC4557D1D0F800804FEA410A4FF003091D
:1013A00009FA0AF928EA0908C0F80080D0F8008094
:1013B0004FEA410902FA09F948EA0908C0F8008031
:1013C000012A01D0022A27D1D0F808804FEA410A29
:1013D0004FF0030909FA0AF928EA0908C0F8088059
:1013E000D0F808804FEA410906FA09F948EA0908E5
:1013F000C0F80880D0F804904FF0010808FA01F80E
:1014000029EA0809C0F80490D0F8048003FA01F929
:1014100048EA0908C0F80480D0F80C804FEA410A75
:101420004FF0030909FA0AF928EA0908C0F80C8004
:10143000D0F80C804FEA410907FA09F948EA09088F
:10144000C0F80C80491C10299CD3BDE8F08700002F
:1014500010B50E48008846F2A811884205DD012229
:1014600051020B48FFF77CFF05E000224FF40071AA
:101470000748FFF775FF054800884CF25031884255
:1014800002DD00200149088010BD00005800022044
:10149000001C02401CB50F48006840F080000D4958
:1014A00008600120032100230246CDE900104FF41B
:1014B00090510948FFF75CFF00224FF40071064885
:1014C000FFF74EFF00224FF480510348FFF748FF1B
:1014D0001CBD000030380240001C024000B589B03D
:1014E00000200690079008900390049005900090CB
:1014F000019002904FF4FA6002F08EFB0020ADF8EC
:1015000018008DF81A0002208DF81B0001208DF8BC
:101510001C0000218DF81D1007E006A8FFF754FC01
:1015200071490870142002F077FB6F48007800289A
:10153000F3DC00208DF80E0008208DF80F002F201E
:101540008DF8100060218DF811108DF81210002117
:101550008DF8131003218DF8141000218DF815104B
:101560008DF816108DF8171040F20160ADF80C00E0
:1015700001205D49087007E003A8FFF725FC5A49E0
:101580000870142002F048FB574800780028F3DC6C
:1015900040F20260ADF80C0001205349087007E0EA
:1015A00003A8FFF711FC50490870142002F034FB27
:1015B0004D4800780028F3DC40F20360ADF80C00E1
:1015C00001204949087007E003A8FFF7FDFB4649E1
:1015D0000870142002F020FB434800780028F3DC58
:1015E00040F20460ADF80C0001203F49087007E0AC
:1015F00003A8FFF7E9FB3C490870142002F00CFB3C
:10160000394800780028F3DC00208DF8020008201B
:101610008DF803002B208DF8040040218DF8051073
:1016200060218DF8061000218DF807100F218DF82C
:10163000081000218DF809108DF80A108DF80B1094
:1016400040F20160ADF8000001202749087007E072
:101650006846FFF7B9FB24490870142002F0DCFA51
:10166000214800780028F3DC40F20260ADF8000069
:1016700001201D49087007E06846FFF7A5FB1A49DD
:101680000870142002F0C8FA174800780028F3DC2C
:1016900040F20360ADF8000001201349087007E034
:1016A0006846FFF791FB10490870142002F0B4FA65
:1016B0000D4800780028F3DC40F20460ADF800002B
:1016C00001200949087007E06846FFF77DFB0649DD
:1016D0000870142002F0A0FA034800780028F3DC18
:1016E000012009B000BD00004C0002202DE9F041AE
:1016F0000746884614461D46284600F033F8C5F1D3
:10170000040007FA00F60F20284100EA080006430B
:1017100006F00F06E21704EBD2625211920002F1BA
:10172000E022D2F800212146E31704EBD3635B11DA
:10173000A4EB431C012303FA0CF31A432046E317DE
:1017400004EBD3635B119B0003F1E023C3F800219A
:101750000348005D40EA061001490855BDE8F081E4
:1017600000E400E00146072323EA01021202054BD0
:1017700018684FF6FF031840034B18431043014B02
:10178000186070470CED00E00000FA054A0A5202AA
:101790000243014B1A60704708ED00E010B50022CB
:1017A0004FF480510948FFF7DBFD09A0FEF7D4FD97
:1017B0004FF47A7002F030FA0BA0FEF7CDFD4FF433
:1017C0007A7002F029FA00F035FD10BD001C0240CD
:1017D0004D656D20416363657373204572726F724E
:1017E00021210D0A00000000536F667420526573BA
:1017F0006574696E672E2E2E0D0A000010B50C4818
:101800000088B0F5FA6F12DD40F2016000F045F893
:1018100040F2026000F041F840F2036000F03DF851
:1018200040F2046000F039F800200149088010BD42
:101830005E0002203EB50446002000900190029018
:10184000ADF800408DF8020008208DF803002B2031
:101850008DF8040040218DF8051060218DF80610E8
:1018600000218DF807100F218DF8081000218DF848
:1018700009108DF80A108DF80B106846FFF7A4FACE
:101880000A2002F0C9F98F218DF808106846FFF789
:101890009BFA0A2002F0C0F93EBD3EB50446002086
:1018A000009001900290ADF800408DF802000820F1
:1018B0008DF8030040208DF8040064218DF8051098
:1018C00060218DF8061000218DF807108DF80810A2
:1018D0008DF809108DF80A108DF80B106846FFF787
:1018E00073FA4FF47A7002F0B3F93EBDFEB50646C6
:1018F0000C4625460020009001900290ADF8006053
:101900008DF8020008208DF8030023208DF80400D4
:10191000FF218DF8051060218DF8061000218DF84B
:101920000710E1B28DF80810210A8DF80910210C7A
:101930008DF80A10210E8DF80B106846FFF744FA57
:101940004FF4FA6002F084F9FEBD00002DE9F04783
:101950000024002500270026A046A146FD48007867
:10196000F0B3FD4890ED050AD0ED020A20EE200A02
:10197000D0ED030A20EE200AD0ED040AF74890EDDE
:10198000001A60EE810A80EE801AF54880ED001A98
:10199000F14890ED010AF248D0ED000A80EE801A7D
:1019A000F04880ED001AEC4890ED050AF2EE040ACA
:1019B00020EE200AD0ED020A20EE200AD0ED030A24
:1019C00060EE200AE54890ED001A80EE810AE248B8
:1019D000D0ED040A80EE201AE34880ED001A00E002
:1019E00002E00020DB490870E048008842F21071F4
:1019F00088427DDDDE480068DE490968441ADE4819
:101A00000068DE490968451ADD480068DD49096853
:101A1000471ADD480068DD490968461A4CF2503023
:101A2000844212DD404284420FDA404285420CDD9E
:101A30005DB1874209DD47B1864206DD40428642FC
:101A400003DA0024002500270026601900EE100AA2
:101A5000B8EEC00AF0EE000A80EE201ABDEEC10A10
:101A600010EE108AF019404200EE100AB8EEC00ADB
:101A7000F0EE000A80EE201ABDEEC10A10EE109AB8
:101A800008EB090000EE100AB8EEC00AF6EE000AF4
:101A900020EE200ABE4880ED000AA8EB090000EE07
:101AA000100AB8EEC00ABB4880ED000A90ED000AAB
:101AB000AC48D0ED000A20EE200AB74880ED000ABD
:101AC000B64890ED000AB448D0ED000A30EE200A86
:101AD000B24880ED000A90ED000AAF48D0ED000A50
:101AE000B6EE001A01EE200AAD4880ED000A00E0D3
:101AF0000FE190ED000AB7EEC00A01F015FDB7EE58
:101B0000C00BA84880ED000AA54890ED000AB7EE8A
:101B1000C00A01F0B1FCB7EEC00BA34880ED000A8B
:101B20009B4890ED000AA048D0ED000A60EE200A24
:101B30008B4890ED001A9D4890ED000A00EE810A56
:101B400080ED000A924890ED000A9648D0ED000A18
:101B500060EE200A824890ED001A954890ED000A48
:101B600000EE810A80ED000A8B4890ED000A914852
:101B7000D0ED000A80EE201A8F4880ED001A8448CC
:101B800090ED000A7648D0ED000A20EE200A894840
:101B9000D0ED000A80EE201A884880ED001A8348B4
:101BA00090ED000A864880ED000A814890ED000A19
:101BB000844880ED000A794890ED000A6748D0ED2E
:101BC000000AB4EEE00AF1EE10FA0BDD734890ED76
:101BD000000A7D48D0ED000A30EE600A6F4880EDC3
:101BE000000A17E06D4890ED000A5C48D0ED000A4D
:101BF000F1EE600AB4EEE00AF1EE10FA0AD267489C
:101C000090ED000A7048D0ED000A30EE200A6348DB
:101C100080ED000A002055490880CC206B490968F6
:101C200008703320694909684870162067490968B7
:101C30008870112065490968C8705C4890ED000AF9
:101C4000BDEEC00A10EE100A6049096848605848A5
:101C500090ED000ABDEEC00A10EE100A5B4909685B
:101C600088604E4890ED000ADFED590A20EE200A08
:101C7000BDEEC00A10EE100A54490968C8604F480A
:101C800090ED000ABDEEC00A10EE100A4F49096837
:101C90000861494890ED000ADFED4D0A20EE200A68
:101CA000BDEEC00A10EE100A4849096848610020DC
:101CB00046490968087603204649087010E0434801
:101CC0000068007E41490968424A1278895C0844EC
:101CD0003E49096808763F480078401C3D49087035
:101CE0003C4800781928EADB21480068214908604F
:101CF000214800682149086021480068214908609E
:101D0000214800682149086033480068401C324976
:101D100008603248007840B919212C48006800F06A
:101D20000FFEFF202D49087011E02C4800782A4949
:101D3000096888420BD829480078FF2807D0192164
:101D40002248006800F0FCFD002023490860BDE83F
:101D5000F08700001C010220D8040220E0000220CD
:101D6000100102201401022018010220600002204C
:101D7000240002207C00022028000220840002208F
:101D80002C00022088000220300002208000022067
:101D90000401022008010220C0000220B800022035
:101DA0000C010220F0000220F40002208C0002202E
:101DB00090000220EC000220AC000220A8000220CB
:101DC000B0000220B4000220E8000220A40102209A
:101DD00000007A441D0102204C0102204001022033
:101DE00010B50446CC200A490870332048700320FF
:101DF0008870FF20C87008460471C07809790844CB
:101E0000034948710621024800F09AFD10BD000008
:101E10007F01022010B504465848007884426FD0F4
:101E2000012057490870112C6BD2DFE804F0097FBC
:101E30007F7F7F154826377F7F7F7F6159715D00E7
:101E400000204F4908704F4908604F4908604F49CA
:101E500008604F49086075E04E48006864214843B7
:101E600000F5967000EE100AB8EEC00AF0EE400AD7
:101E7000BFEE000AFFF7F8F864E0464800684649FC
:101E8000642202FB101000EE100AB8EEC00AF0EE59
:101E9000400ABFEE000AFFF7E7F853E03D4800684C
:101EA0006421484300F5967000EE100AB8EEC00AAF
:101EB000F0EE400A9FED390AFFF7D6F842E03548C8
:101EC00000683549642202FB101000EE100AB8EEDB
:101ED000C00AF0EE400A9FED310AFFF7C5F831E085
:101EE0000E202F4908702DE010202D49087029E0A0
:101EF00028480068032805DD04202649086006E01C
:101F00003BE013E023480068401C2249086019E0C8
:101F100020480068022803DA01201E49086004E016
:101F20001C480068401E1B4908600BE00020154952
:101F3000086015490860154908601549086010498E
:101F4000087000BF00BF0F48016840F20160FFF752
:101F5000CDFC0D48016840F20260FFF7C7FC0B485A
:101F6000016840F20360FFF7C1FC0948016840F2D4
:101F70000460FFF7BBFC0148047010BD1E01022085
:101F80001F010220280102202C0102203001022022
:101F90003401022024010220D4FEFFFF00000000D3
:101FA0007800022000200021164A1288B2F57A7FBC
:101FB00027DD154A1278002A23DD0022114B1A80F2
:101FC00000BF1CE0114A125CCC2A17D10F4B421CF7
:101FD0009A5C332A12D1C21C9A5CFF2A0ED1821C51
:101FE0009A5C0B4B1A700022074B1A70002103E019
:101FF0000022064B5A54491C0A29F9DB401C0728C9
:10200000E0DB70475A000220200002207204022008
:102010007A00022010B50023234C236000BF00BFCC
:1020200000BFBFF34F8F00BF00BF00BF231F186862
:10203000C0F34E3100BFC0F3C90200BF43F6E073E6
:1020400003EA41134FF0404404EA82742343174CDF
:10205000236000BF00BF131EA2F10102EED10B1ED0
:10206000A1F10101E7D100BF00BF00BFBFF34F8F57
:1020700000BF00BF00BF0C4B703B1B6843F48033B4
:10208000094C703C236000BF00BF00BFBFF34F8FFF
:1020900000BF00BF00BF00BF00BF00BFBFF36F8F16
:1020A00000BF00BF00BF10BD84ED00E060EF00E0A6
:1020B0002DE9F04104460D4616461F4615480068B6
:1020C00040F00100134908600020124908310860FF
:1020D00010480068104908400E4908600F48091D63
:1020E0000860081F006820F48020091F0860002095
:1020F00008490C310860FEF77BFF3B463246294613
:10210000204600F00DF800214FF00060FFF73EFB85
:10211000BDE8F08100380240FFFFF6FE10300024D9
:10212000F0B504460D46002100203F4E366846F4C7
:1021300080363D4F3E6001E04E1CB1B23A4E3668EB
:1021400006F400361EB941F6FF76B142F4DB41F6E3
:10215000FF76B14201D1012065E0334E403636684A
:1021600046F08056304F40373E60304E366846F479
:1021700040462E4F3E603E46366846F480363E600E
:102180003E46366846F400363E60274E08363668CE
:1021900046F41446244F08373E60234E366826F036
:1021A0008076214F3E6045EA84160127C7EB52072F
:1021B00046EA074646EA036646F480061A4F3F1D84
:1021C0003E603E1F366846F080763F1F3E6000BF8F
:1021D000154E366806F00076002EF9D0144E36689B
:1021E00046F48076124F3E603E46366846F40076EE
:1021F0003E603E46366846F007063E600A4E0836A8
:10220000366826F00306084F08373E603E463668BB
:1022100046F002063E6000BF034E0836366806F000
:102220000C06082EF8D1F0BD0038024000700040C6
:10223000003C024001480249086070470400FA056A
:102240000CED00E01748006800F0010010B31648DC
:102250000088401C1449088014480088401C134919
:10226000088013480078401C114908701148008804
:10227000401C1049088010480068401C0E49086046
:102280000E480088401C0D4908800D480088401CFD
:102290000B4908800348006820F0010001490860EC
:1022A0007047000010040040580002205A0002202D
:1022B0000A0002205E000220DC010220EA01022066
:1022C000E201022070B505460C461048006840F057
:1022D00002000E4908600E480560001F04600C48AB
:1022E0002038006840F0010009492039086008489A
:1022F0002C38006840F0010005492C3908600223A1
:102300001D2200210846FFF7F1F970BD4038024058
:102310002C04004010B50C48006800F0010058B1D2
:102320000A490869804700200749143108604FF4C2
:102330007A7005491C3108600348006820F00100EC
:102340000149086010BD000010080040340202205E
:102350000848006800F0010020B107480088401CD0
:10236000054908800348006820F001000149086021
:1023700070470000100C00406000022070B5054658
:102380000C461048006840F008000E4908600E48EE
:102390000560001F04600C482038006840F0010010
:1023A00009492039086008482C38006840F00100CD
:1023B00005492C3908600223322201210020FFF751
:1023C00095F970BD403802402C0C004070B50546B0
:1023D0000C461048006840F004000E4908600E48A2
:1023E0000560001F04600C482038006840F00100C0
:1023F00009492039086008482C38006840F001007D
:1024000005492C39086002231E2203210846FFF7E4
:102410006DF970BD403802402C0800400D49096834
:1024200001F0200161B10B4908310968C8B20A49BD
:102430000A4A1278885409490978491C074A1170D8
:102440000449091D096841F00801024A121D116082
:10245000704700001C4C00407C0402202100022038
:102460007CB505460C462C48684300EB5400B0FB95
:10247000F4F62A48006840F001002849086027481F
:102480001030006840F40020244910310860012019
:10249000032100230222CDE90010C9022048FEF7E3
:1024A00067FF06220C211E48FEF73AFF06220B2189
:1024B0001B48FEF735FF1B480660002019490C3900
:1024C000086008460068086008460068086008461A
:1024D000006808600846006808600846006840F028
:1024E000080008600846006840F0040008600846DC
:1024F000006840F0200008600223342219460120C1
:10250000FFF7F4F807480C38006840F0010005496F
:102510000C3908607CBD000040420F00303802409A
:10252000000002400C4C00400B49C96901F0200139
:1025300059B10949496AC8B20849094A1278885408
:1025400007490978491C064A11700349096A41F094
:102550000801014A1162704700500040BC0402208B
:10256000230002207CB505460C463248684300EB48
:102570005400B0FBF4F63048006840F004002E49E7
:1025800008600846006840F0080008602A481030DB
:10259000006840F4801028491031086001200321B0
:1025A00000230222CDE9001001032448FEF7E0FEDB
:1025B0000120032100230222CDE90010042120483C
:1025C000FEF7D6FE08220C211C48FEF7A9FE0822C1
:1025D00002211B48FEF7A4FE1A48C66000201949D4
:1025E00008600846006808600846006808600846F9
:1025F000006808600846006808600846006840F007
:10260000080008600846006840F0040008600846BA
:10261000006840F02000086002233522194601209E
:10262000FFF764F80748006840F0010005490860BA
:102630007CBD000040420F003038024000080240DC
:10264000000C0240005000400D49096801F02001D3
:1026500061B10B4908310968C8B20A490A4A1278BF
:10266000885409490978491C074A11700449091D11
:10267000096841F00801024A121D1160704700000C
:102680001C7C0040B2040220220002207CB50546DA
:102690000C462B48684300EB5400B0FBF4F6294885
:1026A000006840F010002749086026481030006894
:1026B00040F000402349103108600120032100232D
:1026C0000222CDE900102048FEF752FE0822002128
:1026D0001D48FEF725FE082201211B48FEF720FEBB
:1026E0001A480660002019490C390860084600683D
:1026F00008600846006808600846006808600846E8
:10270000006808600846006840F008000860084655
:10271000006840F0040008600846006840F02000AF
:1027200008600223532203210020FEF7DFFF074841
:102730000C38006840F0010004490C3908607CBD89
:1027400040420F0030380240001002400C7C004034
:1027500010B51248007800B3114A1278C2EB021289
:10276000104B03EB42029278D21CD1B20C4A127881
:10277000C2EB021203EB420000F086F90848007831
:10278000401C052190FBF1F201FB12000449087086
:1027900002480078401E0149087010BD1200022056
:1027A00010000220460302201249C96901F02001ED
:1027B000C1B11049496AC8B200210F4A11700F49CE
:1027C00009781E290EDA0E490978C1EB01110D4A6C
:1027D00002EB4101094A1278885408490978491CDA
:1027E000064A11700349096A41F00801014A116261
:1027F00070470000001001400A0002201300022070
:1028000011000220460302207CB505460C462948EB
:10281000684300EB5400B0FBF4F62748006840F032
:1028200002002549086024481430006840F0100078
:102830002149143108600120032100230222CDE93F
:10284000001089031D48FEF793FD04220E211B484A
:10285000FEF766FD04220F211848FEF761FD1848B7
:10286000C6600020164908600846006808600846EF
:10287000006808600846006808600846006840F084
:10288000080008600846006840F004000860084638
:10289000006840F02000086002232522194600202D
:1028A000FEF724FF0648006840F001000449086074
:1028B0007CBD000040420F0030380240000402405E
:1028C000001001401848007832282CDB00201649FF
:1028D00008701648007830B3144800781449154A37
:1028E0001278885400201149087012480078401C62
:1028F000052190FBF1F201FB12000E4908700E4811
:102900000078052805DA0C480078401C0A49087050
:1029100009E00A480078401C052190FBF1F201FB18
:1029200012000649087070470A00022013000220B6
:102930000B000220110002201200022010000220D1
:1029400000220C4B1A6010E00A4A1268825C0A4BA3
:102950009A6200BF084AD26902F04002002AF9D008
:10296000044A1268521C034B1A60024A12688A42D7
:10297000EADB704714000220001001400D4909688D
:1029800001F0200161B10B4908310968C8B20A4958
:102990000A4A1278885409490978491C074A117073
:1029A0000449091D096841F00801024A121D11601D
:1029B000704700001C4800407204022020000220E2
:1029C0007CB505460C462C48684300EB5400B0FB30
:1029D000F4F62A48006840F00200284908602748B9
:1029E0001030006840F48020244910310860012034
:1029F000032100230222CDE9001089022048FEF7BE
:102A0000B7FC07220A211E48FEF78AFC07220B2189
:102A10001B48FEF785FC1B480660002019490C394D
:102A200008600846006808600846006808600846B4
:102A3000006808600846006808600846006840F0C2
:102A4000080008600846006840F004000860084676
:102A5000006840F0200008600223272200210120A6
:102A6000FEF744FE07480C38006840F001000549B5
:102A70000C3908607CBD000040420F003038024035
:102A8000000402400C48004070B504460D46207812
:102A9000CC287CD160783328FBD129462046FEF72C
:102AA0002BFC012875D1E078322873D010DC112876
:102AB00071D006DC01281AD002286DD010286CD104
:102AC000FFE112286AD0132869D03128F7D174E2C7
:102AD000902865D006DC33286FD081286ED08228FC
:102AE000EDD1FBE291286AD09228E8D1FEE3207A6A
:102AF00001287DD12079617900EB012000B2FE49E7
:102B00000880A079E17900EB012000B2FB49088040
:102B10000120FB4908700020FA490860F748008846
:102B2000B0BBF548B0F9000000EE100AB8EEC00BDB
:102B30009FEDF51B20EE010BBDEEC00BF44880EDC0
:102B4000000AED48B0F9000000EE100AB8EEC00B24
:102B50009FEDED1B20EE010BBDEEC00BED4880EDAF
:102B6000000AE548B0F9000000EE100AB8EEC00B0C
:102B70009FEDE91B20EE010BBDEEC00BE84880ED98
:102B8000000ADD48B0F9000000EE100A09E0DDE3BC
:102B900016E0DCE315E2E6E192E1D9E3E7E10BE2DE
:102BA00027E3B8EEC00B9FEDDC1B20EE010BBDEE62
:102BB000C00BDC4880ED000A54E133E252E279E3D5
:102BC000CD480088E8BBCD48B0F9000000EE100AFF
:102BD000B8EEC00B9FEDD41B20EE011BD44890ED46
:102BE000000AB7EEC00A21EE000B9FEDD21B00E0F9
:102BF0002FE180EE012BBDEEC20BC54880ED000A2F
:102C0000BE48B0F9000000EE100AB8EEC00B9FED10
:102C1000C61B20EE011BC64890ED000AB7EEC00AA5
:102C200021EE000B9FEDC31B80EE012BBDEEC20B0E
:102C3000B84880ED000AB148B0F9000000EE100A73
:102C400000E031E0B8EEC00B9FEDB71B20EE011B9A
:102C5000B74890ED000AB7EEC00A21EE000B9FEDD9
:102C6000B51B80EE012BBDEEC20BAD4880ED000A16
:102C7000A248B0F9000000EE100AB8EEC00B9FEDBC
:102C8000AA1B20EE011BAA4890ED000AB7EEC00A6D
:102C900021EE000B9FEDA71B80EE012BBDEEC20BBA
:102CA000A04880ED000ADDE0A14890ED000AB0EEFA
:102CB000001AC0EE010A9148B0F9000000EE100AB7
:102CC000B8EEC00A20EE800A9FED9C1AC0EE010A01
:102CD0008948B0F9000000EE100AB8EEC00A80EE94
:102CE000801AB7EE000A31EE000AB7EEC00A9FED77
:102CF000861B20EE011B8048B0F9000000EE100A90
:102D0000B8EEC00B21EE000BBDEEC00B804880ED8D
:102D1000000A874890ED000AB0EE001AC0EE010AE2
:102D20007648B0F9000000EE100AB8EEC00A20EEB6
:102D3000800A9FED821AC0EE010A6F48B0F90000C8
:102D400000EE100AB8EEC00A80EE801AB7EE000A54
:102D500031EE000AB7EEC00A9FED6B1B20EE011B9F
:102D60006548B0F9000000EE100AB8EEC00B21EE85
:102D7000000BBDEEC00B674880ED000A6C4890ED7B
:102D8000000AB0EE001AC0EE010A5C48B0F900007B
:102D900000EE100AB8EEC00A20EE800A9FED671A16
:102DA000C0EE010A5448B0F9000000EE100AB8EE77
:102DB000C01A80EE810AF7EE000A30EEC00AB7EEC4
:102DC000C00A9FED551B20EE011B4B48B0F90000D7
:102DD00000EE100AB8EEC00B21EE000BBDEEC00BEA
:102DE0004F4880ED000A524890ED000AB0EE001AFC
:102DF000C0EE010A4148B0F9000000EE100AB8EE3A
:102E0000C00A20EE800A9FED4D1AC0EE010A3A4832
:102E1000B0F9000000EE100AB8EEC01A80EE810A88
:102E2000F7EE000A30EEC00AB7EEC00A9FED3A1B7B
:102E300020EE011B3048B0F9000000EE100AB8EE99
:102E4000C00B21EE000BBDEEC00B364880ED000A32
:102E500008E000202E4908602E49086030490860CB
:102E6000304908602A48016840F20160FEF73EFDE3
:102E70002848016840F20260FEF738FD28480168E2
:102E800040F20360FEF732FD2648016840F204601C
:102E9000FEF72CFDCC202A4908703320487003200F
:102EA00088700120C870412008710846C0780979EF
:102EB00008442349487106212148FFF741FDB8E243
:102EC000B7E2CC201F490870332048700320887077
:102ED0001020C8701C4800781C49097808431C4918
:102EE000097808431B4909780843164908710846C0
:102EF000C078097908442FE0BC010220BE010220FD
:102F00002001022064000220DCF4673FF297A64013
:102F1000C8010220CC010220DCF4673FF297A6C072
:102F2000D0010220D4010220DCF4673FF2979640E2
:102F3000C80002200000000000408F4000007A44DA
:102F4000540102205A0102203400022035000220E0
:102F50003600022037000220FE4948710621FD4854
:102F6000FFF7EEFC65E22079FB49087061E29FED16
:102F7000FB0AFB4880ED000A9FEDF80AF94880ED56
:102F8000000A9FEDF60AF84880ED000ACC20F749C8
:102F9000087033204870032088701220C8704320C6
:102FA00008710846C07809790844F049487106213B
:102FB000EE48FFF7C5FC00BF3BE22079EC49087002
:102FC00037E22079A8B9CC20EA490870332048704C
:102FD000032088703220C870002008710846C0782D
:102FE00009790844E34948710621E248FFF7A8FC43
:102FF00017E02079012814D1CC20DE490870332055
:103000004870032088703220C8700120087108467B
:10301000C07809790844D74948710621D548FFF797
:103020008FFC06E22079E0B12079012819D1CC206B
:10303000D149087033204870042088703320C8704C
:1030400001200871002048710846C07809790844B9
:10305000C94949790844C84988710721C648FFF71A
:103060006FFCE6E12079012802D0022834D118E073
:103070000E20C2490870CC20C14908703320487026
:10308000032088708120C870412008710846C078EC
:1030900009790844BA4948710621B948FFF750FC3C
:1030A0001AE01020B54908700E200870CC20B449F1
:1030B000087033204870032088708120C870412038
:1030C00008710846C07809790844AD49487106215D
:1030D000AB48FFF735FC00BF00BFAAE1FF20A949BC
:1030E00008702079012806D0022823D0032840D078
:1030F00004287CD15CE00120A34908706420A34926
:1031000008600020A2490880CC20A2490870332022
:103110004870032088708220C870412008710846DA
:10312000C078097908449B49487106219948FFF7FE
:1031300007FC5CE001209449087032209349086044
:10314000002093490880CC209249087033204870B1
:10315000032088708220C870412008710846C0781A
:10316000097908448B49487106218A48FFF7E8FB32
:103170003DE0022084490870322084490860002024
:1031800083490880CC20834908703320487003208D
:1031900088708220C870412008710846C07809797B
:1031A00008447C49487106217A48FFF7C9FB1EE0B4
:1031B0000220754908706420744908600020744931
:1031C0000880CC2073490870332048700320887031
:1031D0008220C870412008710846C07809790844E7
:1031E0006C49487106216B48FFF7AAFB00BF00BF7E
:1031F0001FE12079012804D002281ED0032857D1CE
:1032000037E0CC2064490870332048700320887070
:103210009020C87001200871604800784871084605
:10322000C078097908445C49497908445A49887149
:1032300007215948FFF784FB3AE0CC205849087031
:1032400033204870032088709020C87002200871D5
:103250005448007848710846C078097908445049B4
:10326000497908444E49887107214D48FFF768FBAA
:103270001EE060794B490870CC2049490870332022
:103280004870032088709020C8700320087145485A
:10329000007848710846C07809790844404949795E
:1032A00008443F49887107213D48FFF749FB00BFAB
:1032B00000BFBEE0CC203C490968087033203A4981
:1032C0000968487012203849096888709120364989
:1032D0000968C870354890ED000A3348006880EDF1
:1032E000010A334890ED000A2F4800E075E00068BD
:1032F00080ED020A2F4890ED000A2B48006880ED0F
:10330000030A2D4890ED000A2748006880ED040A62
:1033100025480068C07800EE100AB8EE400A22483E
:103320000068D0ED010A30EE200A1F480068D0ED99
:10333000020A30EE200A1C480068D0ED030A30EE85
:10334000200A19480068D0ED040A37E075E071E002
:103350006BE000005A010220400102200000000042
:103360008C00022090000220B800022054010220AC
:10337000420102206C010220780102207800022024
:103380006601022079000220380102203C0102205F
:10339000F00102206001022085010220F4010220D8
:1033A0008C010220E8010220940102203800022052
:1033B0003C000220400002204400022030EE200A9F
:1033C000BCEEC00A10EE100A1C49096808751521E8
:1033D0001A480068FFF7B4FA2BE040F20160FEF7EC
:1033E00029FA40F20260FEF725FA40F20360FEF788
:1033F00021FA40F20460FEF71DFAFEF76FF8CC20C8
:103400000F49087033204870032088709220C870DC
:10341000412008710846C078097908440849487174
:1034200006210748FFF78CFA03E00320FEF7D8FCDB
:1034300000BF02E00120FEF7D3FC70BD9401022022
:103440007201022003B401984100009850EAC120A3
:1034500018BF04204A0D18BF40F0010040F2FF726F
:10346000B2EB515F08BF40F00200012808BF052001
:1034700002B070470000000010B529499FED261BDF
:103480002DED020B84B0059820F000408842D8BF93
:103490009DED040B2DDD2349884209D1049840B9E4
:1034A0004FF00100FDF7E9F800F01AFB06B010BD7F
:1034B00005DB9DED040B30EE000B06B010BD684639
:1034C0009DED040B00F088F810F0030004BF9DEDA3
:1034D000021B9DED000B0CD001280ED09DED021BB0
:1034E0009DED000B022810D0012000F0A5FA06B0D7
:1034F00010BD00F0F9F906B010BD9DED021B9DED69
:10350000000B012000F098FA01E000F0EDF906B0A0
:10351000B1EE400B10BD00000000000000000000F4
:10352000FB21E93F0000F07F10B529499FED261BE4
:103530002DED020B84B0059820F000408842DCBFDE
:1035400000209DED040B2EDD2249884209D104980C
:1035500040B94FF00100FDF790F800F0C1FA06B055
:1035600010BD05DB9DED040B30EE000B06B010BD69
:1035700068469DED040B00F02FF810F003000DD00D
:10358000012814D09DED021B9DED000B022816D0E2
:1035900000F0AAF906B0B1EE400B10BD9DED021B84
:1035A0009DED000B012000F047FA06B010BD9DED27
:1035B000021B9DED000B00F097F906B010BD012035
:1035C00000F03AFAE6E7000000000000000000000A
:1035D000FB21E93F0000F07F2DE9F14F04462DED7E
:1035E000020B2DED048B94B09FED9D0B80ED020B33
:1035F000199E9D4826F0004585420ADC9DED180B7A
:10360000002084ED000B14B0BDEC048B03B0BDE8CA
:10361000F08F96489FED969B9FED978BA84225DDF6
:1036200097489FED991B9FED9A2B9DED180B002E4F
:103630000DDD30EE490B854212BF30EE480B30EE07
:10364000410B30EE420B84ED000B0120DBE730EE46
:10365000090B854212BF30EE080B30EE010B30EE45
:10366000020B84ED000B4FF0FF30CCE78A48A842F4
:1036700053DB9DED180B51EC100B00F025FB41ECDA
:10368000100BB0EE401B9FED862B9FED870B290D95
:10369000DFF81CC201EE020B0120FDEEC00B10EEA4
:1036A000903A00EE903AB8EEE02BB0EE410B02EE0D
:1036B000490B22EE081BFC44032830EE411B84ED2D
:1036C000001B1DD011EE902A00EB4015113DC2F3F6
:1036D0000A528A1A954213DA0CEB0012B0EE403B04
:1036E00092ED000B401C20EE021B33EE410B33EE3B
:1036F000403B33EE411B92ED023B12EE031BDBE736
:10370000002EA8BF1846BFF67EAF94ED000B5842BE
:10371000B1EE400B84ED000B75E7C6F3130040F4E7
:10372000801EC6F30A50A0F2F530471100F01F05C5
:10373000C5F12000DDF860B01390002008900990DA
:1037400005200DF1080C5B49002D07EB00027944C0
:1037500008BF51F8221009D051F8223001EB820144
:10376000AB404A68139922FA01F11943A1FB0E26D6
:10377000A1FB0B131A449A4234BF0123002303EB2D
:1037800006080CEB8003D3E901A60E448E4234BF39
:103790000121002192448A4411B1924502D903E0EB
:1037A000924501D2012100E00021C3E901A6414474
:1037B0004CF82010011EA0F10100C4DC04989DED1E
:1037C000050A00F10050810F04989FED3B4B8000EB
:1037D00001EE100ADDED060A9DED072AB8EEC13BA9
:1037E000B8EE401BB8EE600BB8EE422B002021EE85
:1037F000041B9FED334B20EE040B9FED334B22EE69
:10380000042B30EE024B34EE014B34EE034B8DEDC6
:10381000004B00909DED004B199834EE433B10F0A7
:10382000004F33EE411B31EE400B32EE401B9DED5D
:10383000000B9FED272B20EE020B9FED272B01EEB7
:10384000020B9DED001B9FED262B01EE020B1CBF12
:103850004942B1EE400B84ED000B0846D3E6000070
:103860000000000000000000FB21E93F7CD902407D
:1038700000004054FB21F93F3163621A61B4D03D2E
:10388000FB21F93F000000000000601A61B4D03D48
:103890007370032E8A19A33BFB21394100000000FD
:1038A00083C8C96D305FE43F000000000000E03FC6
:1038B0008E18000026180000000000000000103ED6
:1038C000000000000000103C000000000000103A62
:1038D0003326A611460B113C182D4454FB21F93D0B
:1038E00000000054FB21F93D10B52DED040B2DED2A
:1038F000068B82B0B0EE41AB09989FED299B20F07A
:103900000044B4F1795F0FDA9DED080BBDEEC00BFA
:1039100010EE100A002801BFB0EE490B02B0BDEC5A
:10392000068B04B008BF10BD9DED080B1E48062194
:1039300020EE008BB0EE480B784400F045F820EE06
:10394000080B9DED081B1C48844228EE000B01EE7D
:103950004A0B9FED171B28EE011BBCBF31EE400B3D
:1039600039EE400B16DB1548A042BCBF9FED142B6F
:103970008DED002B06DBA4F50010019000200090D7
:103980009DED002B31EE421B39EE422B31EE400B08
:1039900032EE400B02B0BDEC068B04B010BD00004F
:1039A000000000000000F03FDC15000000000000F7
:1039B000000000000000E03F3333D33F0000E93F48
:1039C000000000000000D23F491E00EBC102B0EE33
:1039D000401B92ED000B31F006020DD0491E00EBAA
:1039E000C102B0EE403B92ED002B31F00602B0EE8A
:1039F000420B03EE010BF1D1022914D004290AD0A5
:103A0000062918BF704790ED0A2B00EE012B90EDB0
:103A1000080B02EE010B90ED062B00EE012B90ED52
:103A2000040B02EE010B90ED022B00EE012B90ED4A
:103A3000000B02EE010B704731B504462DED040B6F
:103A40002DED068BB0EE419B07989DED060B20F007
:103A50000040B0F1795F0DDA51EC100BFFF7F2FC8A
:103A6000042808BF00F048F89DED060BBDEC068B5E
:103A700005B030BD20EE008B1348052128EE00ABC9
:103A8000B0EE480B7844FFF79FFF9FED111B8CB100
:103A90009FED112B29EE022B0AEE402B9DED060B1C
:103AA00018EE029B0AEE419B30EE490BBDEC068BF3
:103AB00005B030BD08EE001B9DED060B0AEE010BB4
:103AC000BDEC068B05B030BD88150000000000007D
:103AD000495555555555C5BF000000000000E03F51
:103AE0009FED031B81EE010B7047000000000000FA
:103AF00000000000000000009FED030B20EE000B13
:103B000070470000000000000000000000000010EE
:103B100030380A2801D2012070470020704700BFCA
:103B20007047000010B5FDF793FCFEF7CBFEFEF7E3
:103B30000FFEFDF763FEFDF709FFFEF733FA0248BB
:103B40000078FEF767F910BD7A000220012802D044
:103B5000022836D11AE001211B4A1170E821517068
:103B60009FED1A0A114681ED010AB1EE000A81EDBE
:103B7000020AB3EE0E0A81ED030A9FED150A81EDEC
:103B8000040A9FED140A81ED050A1AE001210E4A8C
:103B90001170E82151709FED100A114681ED010A64
:103BA000B1EE000A81ED020A9FED0C0A81ED030AD5
:103BB0009FED070A81ED040A9FED060A81ED050AD3
:103BC00000BF00BF70470000D80402200080864478
:103BD0009A19A54300401C45000082440000484259
:103BE0004FF0E021096921F004014FF0E02211615A
:103BF000C21700EB5272C2F3C702054B1A704FF4A2
:103C00007A714143C1F3CF01024A1180704700002D
:103C1000000002200200022070B504464FF4077035
:103C200094FBF0F0C6B24FF4077094FBF0F100FB88
:103C3000114085B205E04FF4077000F027F8701EC0
:103C4000C6B2002EF7D115B1284600F01FF870BD9E
:103C500001460D4A12784A434FF0E0235A61002290
:103C60009A6101221A6100BF4FF0E022106900F052
:103C700001021AB100F48032002AF5D000224FF080
:103C8000E0231A619A6170470000022001460D4A44
:103C900012884A434FF0E0235A6100229A610122C0
:103CA0001A6100BF4FF0E022106900F001021AB162
:103CB00000F48032002AF5D000224FF0E0231A6190
:103CC0009A6170470200022082B0CDE9000121F024
:103CD000004001909DED000B02B051EC100B7047BD
:103CE00000BF054AD26902F04002002AF9D0C2B2F0
:103CF000014B9A62704700000010014008B5002493
:103D00000923022219214FF4D870FEF7D1F9D820E7
:103D1000FFF766FFFDF7BEFB06230A2207210120FD
:103D20000094FCF783FDFDF7D9FB4FF4E1316C20E3
:103D3000FEF76AFD4FF4E1313620FEF741FE4FF405
:103D4000E1313620FEF78CFB4FF416413620FEF7AA
:103D50009DFC4FF416513620FEF704FC012140F281
:103D60001B20FEF7AFFA012140F21B20FEF706FBF5
:103D70000120FFF7EBFE01E0FFF7D4FEFCE7014670
:103D80000868704730B595B0054613AB12AA09A96B
:103D9000284600F03FFA044614B1204615B030BD65
:103DA0000020149026E0224909689DF8502001EB7C
:103DB000C20113AB11AA486801A900F02BFA04460E
:103DC0000CB12046EAE709A901A800F0DDFC60B9C2
:103DD0009DF844009DF84810884201DD0220DDE78F
:103DE0009DF85000124988750AE09DF85000401C6B
:103DF000C0B214900E48007D9DF850108842D2DC6D
:103E000000BF0B48007D9DF85010884201D104206E
:103E1000C4E714A9284600F0DDFA04460CB1204698
:103E2000BCE79DF85000024948750020B6E7000045
:103E3000340202202DE9F0419AB09C48847D007D37
:103E4000A04202DC1AB0BDE8F0819849096801EB94
:103E5000C40106AB07AA486808A900F0DBF908A965
:103E600093A0FCF779FA002644E09048008B0121EA
:103E7000B1400840D8B122218FA0FCF76DFA30463E
:103E800000F02EFB89492431471839468BA0FCF7F6
:103E900063FA222188A0FCF75FFA304600F020FB8D
:103EA00082492431084410A941F8260018E0304620
:103EB00000F016FB7D492431085810A941F826006E
:103EC0007A48C07D30B910A850F826107CA0FCF7C5
:103ED00043FA05E010A850F826107AA0FCF73CFA47
:103EE0009DF81C00401EB04202D078A0FCF734FAC6
:103EF000701CC6B29DF81C008642B6DB74A0FCF7AD
:103F00002BFA00F03DFB6948407D0B280DD2DFE81D
:103F100000F0060D151E27323F4E5F728700634981
:103F2000096851F834008047054690E05F4A1268FE
:103F300052F8341010988847054688E05B4B1B68A0
:103F400053F83420DDE91001904705467FE0574FD4
:103F50003F6857F8343010A807C89847054676E000
:103F6000DFF848C1DCF800C05CF8347010A80FC856
:103F7000B84705466BE01498DFF830C10090DCF8D4
:103F800000C05CF8347010A80FC8B84705465EE062
:103F9000DDE91401DFF814C1CDE90001DCF800C04F
:103FA0005CF8347010A80FC8B84705464FE0DDE94B
:103FB00014121698DFF8F4C0CDE900120290DCF874
:103FC00000C05CF8347010A80FC8B84705463EE042
:103FD000DDE91423DDE91610DFF8D0C0CDE90023B8
:103FE000CDE90210DCF800C05CF8347010A80FC8EE
:103FF000B84705462BE0DDE91523DDE91710CDE9CB
:104000000123CDE903101498DFF8A0C00090DCF87C
:1040100000C05CF8347010A80FC8B847054616E019
:10402000DDE91623DDE91810CDE90223CDE90410FE
:10403000DDE91401DFF874C0CDE90001DCF800C04F
:104040005CF8347010A80FC8B847054600BF00BF21
:1040500000F056FA9DF8180001280CD11348C07DD5
:1040600020B929461BA0FCF777F907E029461BA0D9
:10407000FCF772F902E018A0FCF76EF90B4890F813
:10408000EC0088B10948D0F8F0000A21B0FBF1F249
:1040900001FB12070548D0F8F000B0FBF1F83A46F2
:1040A000414611A0FCF758F900BFCBE634020220CC
:1040B0000D0A257328000000256300002573000009
:1040C000256C640030582558000000002C000000CA
:1040D000290000003D256C753B0D0A003D30582538
:1040E000583B0D0A0000000046756E6374696F6EE0
:1040F0002052756E2054696D653A25642E25316411
:104100006D730D0A00000000F0B50346154600204F
:104110000022002600245BE01F782C2F01D104B977
:1041200001221F78292F01D01F780FB904B950E060
:10413000002E3AD11F78302F02DB1F78392F17DD80
:104140001F782D2F14D01F782B2F11D01F78612F9F
:1041500002DB1F78662F0BDD1F78412F02DB1F78F3
:10416000462F05DD1F78582F02D01F78782F0CD1ED
:1041700002B12EE01F78612F03DB1F78203F0F7004
:1041800001E01F780F70491C1FE01F78222F04D117
:1041900002B11EE00126012417E01F78202F14D061
:1041A0001F782C2F11D0FF2613E01F78222F00D16B
:1041B000002402B10DE044B11F785C2F02D15B1CDA
:1041C000471CF8B21F780F70491C471CF8B25B1CE3
:1041D000A2E700BF00270F702E70F0BD10B5044697
:1041E000002010700BE020780870641C491C1078C7
:1041F000401C10701078984201DB012010BD20781F
:10420000202802D020780028EDD10020087000BFBF
:10421000F4E700002DE9FF4F85B08046894600276E
:10422000002004900390012002904FF0000B002525
:1042300044461DE02078202816D005F07F00052890
:1042400012DA0DB945F0800505F07F00042803D18E
:1042500020782A2800D00EE0207805F07F010DF8A4
:104260000100681CC5B202E0852D00D103E0641C8A
:1042700020780028DED100BF8DB1002005F07F013D
:104280000DF8010051A1684600F07EFA18B900212E
:104290000898017002E001210898017000254FF094
:1042A000000A444614E0641C0AF1010000F0FF0A11
:1042B0002078202802D020782A2809D1204600F032
:1042C000D5F90646282E03D02A2E01D0CDF810A00D
:1042D0002078282802D020780028E4D14446049889
:1042E00010B10498401C04444FF0000A002654E02A
:1042F000207810B94FF0010A50E02078282803D127
:1043000016B9781CC7B213E02078292808D13EB925
:1043100017B1781EC7B201E04FF0010A47B93DE07E
:104320002078222804D10EB9012000E000200646A2
:1043300047B9207820282FD0207889F8000009F18B
:10434000010929E020782C2804D101200290681C62
:10435000C5B214E02078202811D0207828280ED06B
:104360004DB9BBF1050F06DA20780DF80B000BF103
:10437000010000F0FF0B0298401CC0B20290012F18
:104380000AD10298022807D10298401CC0B20290BC
:104390000398401CC0B20390641CA9E700BF0398B7
:1043A000012809D100200DF80B0008A1684600F093
:1043B000EBF908B9002003900799039808700020D2
:1043C00089F80000504609B0BDE8F08F766F696447
:1043D000000000002DE9F043B5B005460F4600246B
:1043E000002604E000213D488155701CC6B20A2E0B
:1043F000F8DB06E06D1C287818B9012035B0BDE85F
:10440000F08328782828F5D16D1C61E034AA69462C
:104410002846FFF779FE064635449DF8D00020B1C6
:10442000012827D0FF284CD149E09DF8000000B3B7
:1044300033A9684600F025F906460EB10220DDE7F3
:10444000204600F04DF825490A31339A0A50A1F16F
:104450002400008B0121A140884320491A39088398
:1044600004211E480155601CC4B20A2C01DD032042
:10447000C4E726E0684600F0A3F9401C00F0FF08FE
:10448000204600F02DF815490A3100EB0109494694
:10449000684600F08AF911481A38018B0120A040C3
:1044A000014388B20D491A3908830C4800F804808A
:1044B000601CC4B20A2C01DD03209FE701E002204A
:1044C0009CE700BF2878292801D0287800B900E0AF
:1044D0009CE700BF3C70002090E700004E020220E5
:1044E00002460020002105E0044B5B5C0344D8B287
:1044F0004B1CD9B29142F7DB704700004E020220FC
:104500000D48006800F0010040B10C48D0F8F00000
:104510004FF6FF7108440949C1F8F0000748D0F888
:10452000F00005491431096808440449C1F8F00055
:104530000846D0F8F000704710080040340202200E
:1045400010B5044604EBC40000EB04100122C2EBDA
:10455000800081B24FF47A70FDF738FF01200149E5
:10456000C87510BD3402022010B50246012000E0DB
:1045700050430B1EA1F10104E1B2F9D110BD0000BE
:104580000948006820F00100074908604FF6FF70F5
:1045900005491C31086000200349143108600349B3
:1045A000C1F8F000704700001008004034020220FB
:1045B00070B51D48008800F40040002833D01A4828
:1045C00005780020194948551948816817488847D7
:1045D00004461CB91649C868804721E0134800F01A
:1045E000FBF80546012D00D02C46CCB1012C06D09D
:1045F000022C08D0032C0AD0042C10D10BE00DA003
:10460000FBF7AAFE0BE00EA0FBF7A6FE07E00FA04B
:10461000FBF7A2FE03E010A0FBF79EFE00BF00BF69
:1046200000200149088070BD0800022028030220F4
:1046300034020220BAAFCAFDB4EDCEF3210D0A0058
:10464000B2CECAFDB4EDCEF3210D0A00B2CECAFD42
:10465000CCABB6E0210D0A00CEB4D5D2B5BDC6A50F
:10466000C5E4B5C4BAAFCAFD210D0A000146491C14
:1046700000E0491C0878202801D10029F9D10878E8
:1046800070472DE9F04F05460F4600264FF00A0906
:10469000B3462C460020386034E02078392802DC0C
:1046A0002078302811DA28782D2802D028782B2875
:1046B00000D156B12078462802DC2078412804DA5F
:1046C0002078582817D1012E15D12078412801DBF8
:1046D0004FF0100928782D2803D14FF0020B6D1CE4
:1046E0000FE028782B2803D14FF0010B6D1C08E058
:1046F000701CC6B205E0207800B904E00120BDE8D6
:10470000F08F641CC9E700BF2C46B9F1100F0FD120
:10471000032E01DA0220F2E72078302806D16078F3
:10472000582803D1A41CB01EC6B204E00320E6E75B
:104730000EB90420E3E71BE00EB1701EC6B220786C
:10474000392806DC2078302803DB2078A0F1300AF5
:1047500002E02078A0F1370A31464846FFF704FF0F
:1047600039680AFB00103860641C207800B900E04A
:10477000E2E700BFBBF1020F04D13868C0F10008C6
:10478000C7F800800020BAE702460AE010780B78EC
:10479000984201D001207047107800B902E0521C05
:1047A000491CF3E700BF0020F5E706E002780A7035
:1047B000027802B902E0401C491CF7E700BF7047CD
:1047C0000146002005E00A7802B903E0421CD0B29D
:1047D000491CF8E700BF704710B58CB004461E2393
:1047E0000BAA03A92046FFF7F9FC0090009810B12E
:1047F00001200CB010BD9DF82C00044400200B904B
:104800000EE040489DF82C2050F8221003A8FFF736
:10481000BBFF00B908E09DF82C00401CC0B20B9013
:104820009DF82C000728ECD300BF9DF82C0007282A
:1048300063D2DFE800F004053C5E6564630000BFFE
:1048400031A0FBF789FD31A0FBF786FD3FA0FBF708
:1048500083FD4EA0FBF780FD5CA0FBF77DFD6BA008
:10486000FBF77AFD79A0FBF777FD87A0FBF774FDD6
:104870008CA0FBF771FD94A0FBF76EFD98A0FBF7F1
:104880006BFD9DA0FBF768FDA2A0FBF765FDA8A04E
:10489000FBF762FDB4A0FBF75FFDC1A0FBF75CFD79
:1048A000CCA0FBF759FDD8A0FBF756FDA2E216A05D
:1048B000FBF752FDE4A0FBF74FFD00200B900EE04C
:1048C000F14800689DF82C2000EBC2004168EFA081
:1048D000FBF742FD9DF82C00401CC0B20B90EA484B
:1048E000007D9DF82C108842EADC07A0FBF734FD20
:1048F00080E205A0FBF730FDCCE179E24DE221E258
:10490000F4E10000000202200D0A00002D2D2D2DE3
:104910002D2D2D2D2D2D2D2D2D2D2D2D2D2D2D2DC7
:104920002D2D2D2D55534D4152542056332E332DC0
:104930002D2D2D2D2D2D2D2D2D2D2D2D2D2D2D2DA7
:104940002D2D2D2D2D2D2D200D0A00002020202075
:1049500055534D415254CAC7D3C9414C49454E5491
:10496000454BBFAAB7A2B5C4D2BBB8F6C1E9C7C907
:10497000B5C4B4AEBFDAB5F7CAD4BBA5BDBBD7E9E1
:10498000BCFE2CCDA8B9FD200D0A0000CBFC2CC428
:10499000E3BFC9D2D4CDA8B9FDB4AEBFDAD6FACA46
:1049A000D6B5F7D3C3B3CCD0F2C0EFC3E6B5C4C815
:1049B000CEBACEBAAFCAFD2CB2A2D6B4D0D02ED2C7
:1049C000F2B4CB2CC4E3BFC90D0A0000D2D4CBE6AD
:1049D000D2E2B8FCB8C4BAAFCAFDB5C4CAE4C8EBE9
:1049E000B2CECAFD28D6A7B3D6CAFDD7D628313055
:1049F0002F3136BDF8D6C62CD6A7B3D6B8BACAFD65
:104A000029A1A2D7D6B7FBB4AE0D0A00A1A2BAAFB6
:104A1000CAFDC8EBBFDAB5D8D6B7B5C8D7F7CEAAA6
:104A2000B2CECAFD292CB5A5B8F6BAAFCAFDD7EEED
:104A3000B6E0D6A7B3D63130B8F6CAE4C8EBB2CEEA
:104A4000CAFD2CB2A2D6A7B3D60D0A00BAAFCAFDD2
:104A5000B7B5BBD8D6B5CFD4CABE2ED6A7B3D6B2BB
:104A6000CECAFDCFD4CABEBDF8D6C6C9E8D6C3B932
:104A7000A6C4DC2CD6A7B3D6BDF8D6C6D7AABBBB76
:104A8000B9A6C4DC2E0D0A00BCBCCAF5D6A7B3D6A5
:104A90003A7777772E6F70656E6564762E636F6DEB
:104AA0000D0A000055534D415254D3D037B8F6CFBC
:104AB000B5CDB3C3FCC1EE28B1D8D0EBD0A1D0B4F2
:104AC000293A0D0A000000003F3A20202020202033
:104AD000BBF1C8A1B0EFD6FAD0C5CFA20D0A000035
:104AE00068656C703A202020BBF1C8A1B0EFD6FAFF
:104AF000D0C5CFA20D0A00006C6973743A20202043
:104B0000BFC9D3C3B5C4BAAFCAFDC1D0B1ED0D0A98
:104B10000A00000069643A2020202020BFC9D3C3C6
:104B2000BAAFCAFDB5C44944C1D0B1ED0D0A0A00FF
:104B30006865783A20202020B2CECAFD3136BDF813
:104B4000D6C6CFD4CABE2CBAF3B8FABFD5B8F12BAB
:104B5000CAFDD7D6BCB4D6B4D0D0BDF8D6C6D7AA75
:104B6000BBBB0D0A0A0000006465633A20202020C8
:104B7000B2CECAFD3130BDF8D6C6CFD4CABE2CBA2B
:104B8000F3B8FABFD5B8F12BCAFDD7D6BCB4D6B4AA
:104B9000D0D0BDF8D6C6D7AABBBB0D0A0A0000000C
:104BA00072756E74696D653A312CBFAAC6F4BAAFDE
:104BB000CAFDD4CBD0D0BCC6CAB13B302CB9D8B119
:104BC000D5BAAFCAFDD4CBD0D0BCC6CAB13B0D0A52
:104BD0000A000000C7EBB0B4D5D5B3CCD0F2B1E039
:104BE000D0B4B8F1CABDCAE4C8EBBAAFCAFDC3FBC2
:104BF000BCB0B2CECAFDB2A2D2D4BBD8B3B5BCFC55
:104C0000BDE1CAF82E0D0A002D2D2D2D2D2D2D2D97
:104C10002D2D2D2D2D2D2D2D2D2D2D2D2D2D2D2DC4
:104C20002D2D414C49454E54454B2D2D2D2D2D2DCF
:104C30002D2D2D2D2D2D2D2D2D2D2D2D2D2D2D2DA4
:104C40002D2D2D200D0A00002D2D2D2D2D2D2D2D3E
:104C50002D2D2D2D2D2D2D2D2D2D2D2D2D2D2D2D84
:104C60002DBAAFCAFDC7E5B5A52D2D2D2D2D2D2DA6
:104C70002D2D2D2D2D2D2D2D2D2D2D2D2D2D2D2D64
:104C80002D2D2D2D200D0A003402022025730D0A32
:104C90000000000059A0FBF75FFB00200B901AE01A
:104CA000664909689DF82C2001EBC20101AB02AAFC
:104CB000486803A9FFF7AEFA604800689DF82C1019
:104CC00050F8312003A95EA0FBF746FB9DF82C00AD
:104CD000401CC0B20B905948007D9DF82C108842B2
:104CE000DEDCAFF2DC30FBF737FB83E0AFF2E8301D
:104CF000FBF732FB0BAA03A92046FFF705FA9DF844
:104D00002C00C8B9694603A8FFF7BBFC0B909DF8BF
:104D10002C0020B94FA00099FBF71EFB0EE09DF878
:104D20002C00042801D0022063E54DA0FBF714FB02
:104D300001204249C87501E002205AE547A0FBF76F
:104D40000BFB57E045A0FBF707FB0BAA03A9204686
:104D5000FFF7DAF99DF82C00C8B9694603A8FFF7F8
:104D600090FC0B909DF82C0020B942A00099FBF715
:104D7000F3FA0EE09DF82C00042801D0022038E55B
:104D80003FA0FBF7E9FA00202C49C87501E002209A
:104D90002FE532A0FBF7E0FA2CE030A0FBF7DCFABD
:104DA0000BAA03A92046FFF7AFF99DF82C00C8B95C
:104DB000694603A8FFF765FC0B909DF82C0078B9B5
:104DC0001E49009881F8EC00084690F8EC0018B1F4
:104DD00030A0FBF7C1FA07E035A0FBF7BDFA03E00E
:104DE000022006E5022004E51CA0FBF7B5FA01E06D
:104DF0000120FEE400BF0020FBE400002D2D2D2D3E
:104E00002D2D2D2D2D2D2D2D2D2D2D2D2D2D2D2DD2
:104E10002D2D2D2D2DBAAFCAFD204944202D2D2D2D
:104E20002D2D2D2D2D2D2D2D2D2D2D2D2D2D2D2DB2
:104E30002D2D2D2D2D2D2D2D200D0A00340202207B
:104E400025732069642069733A0D0A30582530387B
:104E5000580D0A004845583A305825580D0A0000A8
:104E60003136BDF8D6C6B2CECAFDCFD4CABE210DEA
:104E70000A0000004445433A256C750D0A00000005
:104E80003130BDF8D6C6B2CECAFDCFD4CABE210DD0
:104E90000A00000052756E2054696D652043616CF4
:104EA00063756C6174696F6E204F4E0D0A000000CF
:104EB00052756E2054696D652043616C63756C6139
:104EC00074696F6E204F46460D0A000001607047FE
:104ED0004FF04070E1EE100A704730313233343514
:104EE0003637383941424344454640305800303126
:104EF0003233343536373839616263646566403041
:104F0000780004000008000000000000000200011A
:104F100000001000000000004C5555555555A53FA8
:104F20007751C1166CC156BF9015CB19A001FA3E3E
:104F3000AD529C804F7E92BEC4B1B4BD9EEE213E68
:104F4000D43888BEE9FAA8BD00004054FB21F93FDF
:104F50003163621A61B4D03D0000601A61B4D03D83
:104F60007370032E8A19A33B0000002E8A19A33BFD
:104F7000C14920259A837B39000000000000000011
:104F80006E83F9A22915444ED15727FCC0DD34F5B4
:104F9000999562DB4190433CAB6351FE61C5BBDE3A
:104FA0003A6E24B7E0D24D42EA2E49061C92D1094E
:104FB0001CEB1DFE3EA729B1F53582E88444BB2ECB
:104FC00026709CE9417E5FB439D69139F439538318
:104FD0008B5F849C3B28F9BDFF97F81F0F9805DE77
:104FE0008B112FEF1F6D0A5ACF7E366DB709CB2775
:104FF000663F464F2DEA5F9EC7BA27757BF1E5EB0A
:10500000F739073DEA92528AB15FFB6B085D8D1F4D
:10501000A6F810111111813FD561C119A0012ABF55
:105020007DFEB157E31DC73EEB9C2B8AE6E55ABED9
:105030007CD5CF5A3AD9E53D3F0000006465630056
:105040006964000072756E74696D650068656C70E6
:10505000000000006C69737400000000686578004F
:10506000766F69642077726974655F616464722821
:1050700075333220616464722C7533322076616C32
:105080002900000075382043414E315F53656E643E
:105090005F4D73672875382A206D73672C7538202B
:1050A0006C656E2900000000753332207265616402
:1050B0005F61646472287533322061646472290010
:1050C000E05000080000022028030000340200081D
:1050D0008851000828030220D00A0000900200082E
:1050E000014C022B010250FF1C8086440522401710
:1050F000F0419A19A543081811401C45D80FC93F23
:10510000DC0F4940E4CB9640DC0FC940CDCCCC3D10
:10511000390A173FD04A03A6092AD801441E0405BC
:1051200002201C041A29041A38041A54041A7004A0
:105130001A84046990699423DC05021B9649C221F4
:105140000217641338501B084C041A54041A400404
:105150001A5C041A3C041A4404137F3D1B08A80877
:1051600013CD4E1B086008131F0E1B088408171C64
:1051700002022041451B08852013353E1B08B10C57
:085180008A039301D500000031
:04000005080001F9F5
:00000001FF
